{
  "_format": "hh-sol-artifact-1",
  "contractName": "WishList",
  "sourceName": "contracts/WishList.sol",
  "abi": [
    {
      "anonymous": false,
      "inputs": [
        {
          "components": [
            {
              "internalType": "string",
              "name": "message",
              "type": "string"
            },
            {
              "internalType": "address",
              "name": "creator_address",
              "type": "address"
            },
            {
              "internalType": "uint256",
              "name": "created_at",
              "type": "uint256"
            }
          ],
          "indexed": false,
          "internalType": "struct WishList.Wish",
          "name": "wish",
          "type": "tuple"
        }
      ],
      "name": "WishAdded",
      "type": "event"
    },
    {
      "inputs": [
        {
          "internalType": "string",
          "name": "message",
          "type": "string"
        }
      ],
      "name": "addWish",
      "outputs": [],
      "stateMutability": "nonpayable",
      "type": "function"
    },
    {
      "inputs": [],
      "name": "getWishes",
      "outputs": [
        {
          "components": [
            {
              "internalType": "string",
              "name": "message",
              "type": "string"
            },
            {
              "internalType": "address",
              "name": "creator_address",
              "type": "address"
            },
            {
              "internalType": "uint256",
              "name": "created_at",
              "type": "uint256"
            }
          ],
          "internalType": "struct WishList.Wish[]",
          "name": "",
          "type": "tuple[]"
        }
      ],
      "stateMutability": "view",
      "type": "function"
    },
    {
      "inputs": [
        {
          "internalType": "uint256",
          "name": "",
          "type": "uint256"
        }
      ],
      "name": "wishes",
      "outputs": [
        {
          "internalType": "string",
          "name": "message",
          "type": "string"
        },
        {
          "internalType": "address",
          "name": "creator_address",
          "type": "address"
        },
        {
          "internalType": "uint256",
          "name": "created_at",
          "type": "uint256"
        }
      ],
      "stateMutability": "view",
      "type": "function"
    }
  ],
  "bytecode": "0x608060405234801561001057600080fd5b50610993806100206000396000f3fe608060405234801561001057600080fd5b50600436106100415760003560e01c80630153b82b1461004657806315c39a5a146100645780638820e46614610080575b600080fd5b61004e6100b2565b60405161005b919061077d565b60405180910390f35b61007e60048036038101906100799190610538565b610203565b005b61009a6004803603810190610095919061057d565b610354565b6040516100a99392919061079f565b60405180910390f35b60606000805480602002602001604051908101604052809291908181526020016000905b828210156101fa5783829060005260206000209060030201604051806060016040529081600082018054610109906108d4565b80601f0160208091040260200160405190810160405280929190818152602001828054610135906108d4565b80156101825780601f1061015757610100808354040283529160200191610182565b820191906000526020600020905b81548152906001019060200180831161016557829003601f168201915b505050505081526020016001820160009054906101000a900473ffffffffffffffffffffffffffffffffffffffff1673ffffffffffffffffffffffffffffffffffffffff1673ffffffffffffffffffffffffffffffffffffffff168152602001600282015481525050815260200190600101906100d6565b50505050905090565b6000604051806060016040528084848080601f016020809104026020016040519081016040528093929190818152602001838380828437600081840152601f19601f8201169050808301925050505050505081526020013373ffffffffffffffffffffffffffffffffffffffff168152602001428152509050600081908060018154018082558091505060019003906000526020600020906003020160009091909190915060008201518160000190805190602001906102c4929190610436565b5060208201518160010160006101000a81548173ffffffffffffffffffffffffffffffffffffffff021916908373ffffffffffffffffffffffffffffffffffffffff1602179055506040820151816002015550507fc7d7d6356bf3be427027363cb633c4abda879bbb98f03af6fc3e872c8417e7ef8160405161034791906107dd565b60405180910390a1505050565b6000818154811061036457600080fd5b9060005260206000209060030201600091509050806000018054610387906108d4565b80601f01602080910402602001604051908101604052809291908181526020018280546103b3906108d4565b80156104005780601f106103d557610100808354040283529160200191610400565b820191906000526020600020905b8154815290600101906020018083116103e357829003601f168201915b5050505050908060010160009054906101000a900473ffffffffffffffffffffffffffffffffffffffff16908060020154905083565b828054610442906108d4565b90600052602060002090601f01602090048101928261046457600085556104ab565b82601f1061047d57805160ff19168380011785556104ab565b828001600101855582156104ab579182015b828111156104aa57825182559160200191906001019061048f565b5b5090506104b891906104bc565b5090565b5b808211156104d55760008160009055506001016104bd565b5090565b60008083601f8401126104eb57600080fd5b8235905067ffffffffffffffff81111561050457600080fd5b60208301915083600182028301111561051c57600080fd5b9250929050565b60008135905061053281610946565b92915050565b6000806020838503121561054b57600080fd5b600083013567ffffffffffffffff81111561056557600080fd5b610571858286016104d9565b92509250509250929050565b60006020828403121561058f57600080fd5b600061059d84828501610523565b91505092915050565b60006105b283836106bf565b905092915050565b6105c381610865565b82525050565b6105d281610865565b82525050565b60006105e38261080f565b6105ed8185610832565b9350836020820285016105ff856107ff565b8060005b8581101561063b578484038952815161061c85826105a6565b945061062783610825565b925060208a01995050600181019050610603565b50829750879550505050505092915050565b60006106588261081a565b6106628185610843565b93506106728185602086016108a1565b61067b81610935565b840191505092915050565b60006106918261081a565b61069b8185610854565b93506106ab8185602086016108a1565b6106b481610935565b840191505092915050565b600060608301600083015184820360008601526106dc828261064d565b91505060208301516106f160208601826105ba565b506040830151610704604086018261075f565b508091505092915050565b6000606083016000830151848203600086015261072c828261064d565b915050602083015161074160208601826105ba565b506040830151610754604086018261075f565b508091505092915050565b61076881610897565b82525050565b61077781610897565b82525050565b6000602082019050818103600083015261079781846105d8565b905092915050565b600060608201905081810360008301526107b98186610686565b90506107c860208301856105c9565b6107d5604083018461076e565b949350505050565b600060208201905081810360008301526107f7818461070f565b905092915050565b6000819050602082019050919050565b600081519050919050565b600081519050919050565b6000602082019050919050565b600082825260208201905092915050565b600082825260208201905092915050565b600082825260208201905092915050565b600061087082610877565b9050919050565b600073ffffffffffffffffffffffffffffffffffffffff82169050919050565b6000819050919050565b60005b838110156108bf5780820151818401526020810190506108a4565b838111156108ce576000848401525b50505050565b600060028204905060018216806108ec57607f821691505b60208210811415610900576108ff610906565b5b50919050565b7f4e487b7100000000000000000000000000000000000000000000000000000000600052602260045260246000fd5b6000601f19601f8301169050919050565b61094f81610897565b811461095a57600080fd5b5056fea2646970667358221220d564de3cab9c070901ff213bf0ab8970ad95075e1a0e88295464d2a88c5ec18664736f6c63430008040033",
  "linkReferences": {},
  "deployedLinkReferences": {}
}